:020000020000FC
:1000000002C0AAC0AFC00FE50DBF02E00EBF0AE0FC
:1000100005BF00EC0BBF789415C0F4E0E8EE08953E
:10002000F4E0EAE70895F5E0E2E008958AE973D0A4
:10003000952D90636AD0089581EA6DD0962D9063D6
:1000400064D0089547D00FEF0ABB07BBA0E0A2BB66
:10005000E4DF01D066C0C895102D1030A1F1113039
:1000600069F0123079F0133089F0143099F01530BE
:1000700021F0902D4AD03196EECF089580E84BD0F4
:100080003196E9CF80EC47D03196E5CF84E943D073
:100090003196E1CF84ED3FD03196DDCF89EC3BD076
:1000A000032D003011F0013021F0F5E0ECE1D3DF59
:1000B0000895F5E0E0E2CFDF089588E82CD0F5E080
:1000C000E4E2C9DF08953196C6CF00E00BBF00E03F
:1000D000102E27C0D99888E388BBD89AD8982CD0FE
:1000E000D9988CE088BBD89AD89826D007D0D998D0
:1000F00086E088BBD89AD8981FD00895D99881E017
:1001000088BBD89AD89818D00895D99A98BBD89A0D
:10011000D89812D00895D99888BBD89AD8980CD07E
:100120000895012D013021F103307CF6FACF45E826
:100130004A95F1F70000089543E04A95F1F7000071
:10014000089545E15BE46FEB6A95F1F75A95E1F7A5
:100150004A95D1F700000895D1DF62DF7CDF01E02E
:10016000102E1895CBDF5FDF76DF04E0102E189598
:1001700000EF04BB00C000E2F0E0E0E610E0119305
:100180000A95E1F700C005E0502E602E00E0302E09
:100190004DDF52DF83DF00C0F0E0E0E6A1E0A2BB6C
:1001A00000C000E0202E0FE005BB000003B3006F8D
:1001B0000F3FC9F300C00FE710E005BB000013B309
:1001C000106F1F3F49F411E0210E3196069500682B
:1001D000103109F0F2CF11C0169538F404E0200E6A
:1001E0003496022D00314CF4F7CF0081112D1230DE
:1001F00019F0003059F001C08AC0012D0230E1F33E
:10020000032D003049F20130A1F0F7CF01E0008367
:1002100093DF032D003011F0013081F05A9406DF96
:1002200015D0052D003009F0B7CF01E0302E36DFB4
:1002300000C0F0E0E0E7A2E0A2BBB3CF6A94FCDE2E
:100240002BD0062D003009F0F4CF55C0F0E0E0E6E9
:1002500080E861DF71DF00E0702E802E43D055DF33
:1002600031968394082D0430C9F700E0802E7394F2
:10027000072D013041F0023049F0033051F00430D5
:1002800009F0ECCF089580EC46DFE8CF84E943DF46
:10029000E5CF84ED40DFE2CFF0E0E0E780E93BDF4F
:1002A0004BDF00E0702E802E1DD02FDF319683941F
:1002B000082D0430C9F700E0802E7394072D01301B
:1002C00041F0023049F0033051F0043009F0ECCF36
:1002D000089580ED20DFE8CF84EA1DDFE5CF84EECE
:1002E0001ADFE2CF1081103011F0113011F090E2DE
:1002F00008959FE408951394E0DE05E0502E602EEB
:1003000000E0302E93DE98DE36D05BD024C0023081
:1003100008F014C00E5F00830330A9F4032D0030F1
:1003200039F0013001F05A9441F080DE24D013C03E
:100330006A9419F081DE45D016C074C0032D0030D8
:1003400051F0013081F03DD0032D003061F013D029
:10035000032D013001F000E0A1E0A2BB302E9EDEB3
:10036000F0E0E0E71ECF01E0A2E0A2BB302E96DE77
:10037000F0E0E0E616CFF0E0E0E680E8CCDEDCDEA0
:1003800000E0702E802E43D0C0DE31968394082D7D
:100390000430C9F700E0802E7394072D013041F03E
:1003A000023049F0033051F0043009F0ECCF0895E9
:1003B00080ECB1DEE8CF84E9AEDEE5CF84EDABDEE4
:1003C000E2CFF0E0E0E780E9A6DEB6DE00E0702EE6
:1003D000802E1DD09ADE31968394082D0430C9F703
:1003E00000E0802E7394072D013041F0023049F077
:1003F000033051F0043009F0ECCF089580ED8BDE2E
:10040000E8CF84EA88DEE5CF84EE85DEE2CF108196
:10041000123010F019F024F490E2089598E5089550
:100420009FE408951394052D003051F0062D0030FF
:1004300001F064DEACEFA2BBF4E0E2E50CDE45CEF9
:100440005DDEACEFA2BBF4E0E6E6ACEFA2BB03DE00
:100450003CCE02503120574F4E000347414D4520BE
:100460004F564552050002503220574F4E00034769
:10047000414D45204F56455205000120202020FFC8
:1004800020202050524550202020FF2020202000F6
:100490000220202020FF50312020585820205032A8
:1004A000FF20202020000320202020FF2058202093
:1004B000202020205820FF20202020000420202061
:1004C00020FF20202020585820202020FF202020FE
:1004D00020050148454C4C4F2C20484150505900B4
:1004E00002574F524C44210501424154544C45534C
:1004F00048495000035052455353205354415254DD
:10050000050001455849542053435245454E035078
:100510004C45415345205245534554055031050043
:0A052000503205005455524E0500FC
:00000001FF
